{
  "_format": "hh-sol-artifact-1",
  "contractName": "Domains",
  "sourceName": "contracts/domains.sol",
  "abi": [
    {
      "inputs": [
        {
          "internalType": "string",
          "name": "_tld",
          "type": "string"
        }
      ],
      "stateMutability": "payable",
      "type": "constructor"
    },
    {
      "inputs": [
        {
          "internalType": "address",
          "name": "sender",
          "type": "address"
        },
        {
          "internalType": "uint256",
          "name": "tokenId",
          "type": "uint256"
        },
        {
          "internalType": "address",
          "name": "owner",
          "type": "address"
        }
      ],
      "name": "ERC721IncorrectOwner",
      "type": "error"
    },
    {
      "inputs": [
        {
          "internalType": "address",
          "name": "operator",
          "type": "address"
        },
        {
          "internalType": "uint256",
          "name": "tokenId",
          "type": "uint256"
        }
      ],
      "name": "ERC721InsufficientApproval",
      "type": "error"
    },
    {
      "inputs": [
        {
          "internalType": "address",
          "name": "approver",
          "type": "address"
        }
      ],
      "name": "ERC721InvalidApprover",
      "type": "error"
    },
    {
      "inputs": [
        {
          "internalType": "address",
          "name": "operator",
          "type": "address"
        }
      ],
      "name": "ERC721InvalidOperator",
      "type": "error"
    },
    {
      "inputs": [
        {
          "internalType": "address",
          "name": "owner",
          "type": "address"
        }
      ],
      "name": "ERC721InvalidOwner",
      "type": "error"
    },
    {
      "inputs": [
        {
          "internalType": "address",
          "name": "receiver",
          "type": "address"
        }
      ],
      "name": "ERC721InvalidReceiver",
      "type": "error"
    },
    {
      "inputs": [
        {
          "internalType": "address",
          "name": "sender",
          "type": "address"
        }
      ],
      "name": "ERC721InvalidSender",
      "type": "error"
    },
    {
      "inputs": [
        {
          "internalType": "uint256",
          "name": "tokenId",
          "type": "uint256"
        }
      ],
      "name": "ERC721NonexistentToken",
      "type": "error"
    },
    {
      "anonymous": false,
      "inputs": [
        {
          "indexed": true,
          "internalType": "address",
          "name": "owner",
          "type": "address"
        },
        {
          "indexed": true,
          "internalType": "address",
          "name": "approved",
          "type": "address"
        },
        {
          "indexed": true,
          "internalType": "uint256",
          "name": "tokenId",
          "type": "uint256"
        }
      ],
      "name": "Approval",
      "type": "event"
    },
    {
      "anonymous": false,
      "inputs": [
        {
          "indexed": true,
          "internalType": "address",
          "name": "owner",
          "type": "address"
        },
        {
          "indexed": true,
          "internalType": "address",
          "name": "operator",
          "type": "address"
        },
        {
          "indexed": false,
          "internalType": "bool",
          "name": "approved",
          "type": "bool"
        }
      ],
      "name": "ApprovalForAll",
      "type": "event"
    },
    {
      "anonymous": false,
      "inputs": [
        {
          "indexed": false,
          "internalType": "uint256",
          "name": "_fromTokenId",
          "type": "uint256"
        },
        {
          "indexed": false,
          "internalType": "uint256",
          "name": "_toTokenId",
          "type": "uint256"
        }
      ],
      "name": "BatchMetadataUpdate",
      "type": "event"
    },
    {
      "anonymous": false,
      "inputs": [
        {
          "indexed": false,
          "internalType": "uint256",
          "name": "_tokenId",
          "type": "uint256"
        }
      ],
      "name": "MetadataUpdate",
      "type": "event"
    },
    {
      "anonymous": false,
      "inputs": [
        {
          "indexed": true,
          "internalType": "address",
          "name": "from",
          "type": "address"
        },
        {
          "indexed": true,
          "internalType": "address",
          "name": "to",
          "type": "address"
        },
        {
          "indexed": true,
          "internalType": "uint256",
          "name": "tokenId",
          "type": "uint256"
        }
      ],
      "name": "Transfer",
      "type": "event"
    },
    {
      "inputs": [
        {
          "internalType": "address",
          "name": "to",
          "type": "address"
        },
        {
          "internalType": "uint256",
          "name": "tokenId",
          "type": "uint256"
        }
      ],
      "name": "approve",
      "outputs": [],
      "stateMutability": "nonpayable",
      "type": "function"
    },
    {
      "inputs": [
        {
          "internalType": "address",
          "name": "owner",
          "type": "address"
        }
      ],
      "name": "balanceOf",
      "outputs": [
        {
          "internalType": "uint256",
          "name": "",
          "type": "uint256"
        }
      ],
      "stateMutability": "view",
      "type": "function"
    },
    {
      "inputs": [
        {
          "internalType": "string",
          "name": "",
          "type": "string"
        }
      ],
      "name": "domains",
      "outputs": [
        {
          "internalType": "address",
          "name": "",
          "type": "address"
        }
      ],
      "stateMutability": "view",
      "type": "function"
    },
    {
      "inputs": [
        {
          "internalType": "string",
          "name": "name",
          "type": "string"
        }
      ],
      "name": "getAddress",
      "outputs": [
        {
          "internalType": "address",
          "name": "",
          "type": "address"
        }
      ],
      "stateMutability": "view",
      "type": "function"
    },
    {
      "inputs": [
        {
          "internalType": "uint256",
          "name": "tokenId",
          "type": "uint256"
        }
      ],
      "name": "getApproved",
      "outputs": [
        {
          "internalType": "address",
          "name": "",
          "type": "address"
        }
      ],
      "stateMutability": "view",
      "type": "function"
    },
    {
      "inputs": [
        {
          "internalType": "string",
          "name": "name",
          "type": "string"
        }
      ],
      "name": "getRecord",
      "outputs": [
        {
          "internalType": "string",
          "name": "",
          "type": "string"
        }
      ],
      "stateMutability": "view",
      "type": "function"
    },
    {
      "inputs": [
        {
          "internalType": "address",
          "name": "owner",
          "type": "address"
        },
        {
          "internalType": "address",
          "name": "operator",
          "type": "address"
        }
      ],
      "name": "isApprovedForAll",
      "outputs": [
        {
          "internalType": "bool",
          "name": "",
          "type": "bool"
        }
      ],
      "stateMutability": "view",
      "type": "function"
    },
    {
      "inputs": [],
      "name": "isOwner",
      "outputs": [
        {
          "internalType": "bool",
          "name": "",
          "type": "bool"
        }
      ],
      "stateMutability": "view",
      "type": "function"
    },
    {
      "inputs": [],
      "name": "name",
      "outputs": [
        {
          "internalType": "string",
          "name": "",
          "type": "string"
        }
      ],
      "stateMutability": "view",
      "type": "function"
    },
    {
      "inputs": [],
      "name": "owner",
      "outputs": [
        {
          "internalType": "address payable",
          "name": "",
          "type": "address"
        }
      ],
      "stateMutability": "view",
      "type": "function"
    },
    {
      "inputs": [
        {
          "internalType": "uint256",
          "name": "tokenId",
          "type": "uint256"
        }
      ],
      "name": "ownerOf",
      "outputs": [
        {
          "internalType": "address",
          "name": "",
          "type": "address"
        }
      ],
      "stateMutability": "view",
      "type": "function"
    },
    {
      "inputs": [
        {
          "internalType": "string",
          "name": "name",
          "type": "string"
        }
      ],
      "name": "price",
      "outputs": [
        {
          "internalType": "uint256",
          "name": "",
          "type": "uint256"
        }
      ],
      "stateMutability": "pure",
      "type": "function"
    },
    {
      "inputs": [
        {
          "internalType": "string",
          "name": "",
          "type": "string"
        }
      ],
      "name": "records",
      "outputs": [
        {
          "internalType": "string",
          "name": "",
          "type": "string"
        }
      ],
      "stateMutability": "view",
      "type": "function"
    },
    {
      "inputs": [
        {
          "internalType": "string",
          "name": "name",
          "type": "string"
        }
      ],
      "name": "register",
      "outputs": [],
      "stateMutability": "payable",
      "type": "function"
    },
    {
      "inputs": [
        {
          "internalType": "address",
          "name": "from",
          "type": "address"
        },
        {
          "internalType": "address",
          "name": "to",
          "type": "address"
        },
        {
          "internalType": "uint256",
          "name": "tokenId",
          "type": "uint256"
        }
      ],
      "name": "safeTransferFrom",
      "outputs": [],
      "stateMutability": "nonpayable",
      "type": "function"
    },
    {
      "inputs": [
        {
          "internalType": "address",
          "name": "from",
          "type": "address"
        },
        {
          "internalType": "address",
          "name": "to",
          "type": "address"
        },
        {
          "internalType": "uint256",
          "name": "tokenId",
          "type": "uint256"
        },
        {
          "internalType": "bytes",
          "name": "data",
          "type": "bytes"
        }
      ],
      "name": "safeTransferFrom",
      "outputs": [],
      "stateMutability": "nonpayable",
      "type": "function"
    },
    {
      "inputs": [
        {
          "internalType": "address",
          "name": "operator",
          "type": "address"
        },
        {
          "internalType": "bool",
          "name": "approved",
          "type": "bool"
        }
      ],
      "name": "setApprovalForAll",
      "outputs": [],
      "stateMutability": "nonpayable",
      "type": "function"
    },
    {
      "inputs": [
        {
          "internalType": "string",
          "name": "name",
          "type": "string"
        },
        {
          "internalType": "string",
          "name": "record",
          "type": "string"
        }
      ],
      "name": "setRecord",
      "outputs": [],
      "stateMutability": "nonpayable",
      "type": "function"
    },
    {
      "inputs": [
        {
          "internalType": "bytes4",
          "name": "interfaceId",
          "type": "bytes4"
        }
      ],
      "name": "supportsInterface",
      "outputs": [
        {
          "internalType": "bool",
          "name": "",
          "type": "bool"
        }
      ],
      "stateMutability": "view",
      "type": "function"
    },
    {
      "inputs": [],
      "name": "symbol",
      "outputs": [
        {
          "internalType": "string",
          "name": "",
          "type": "string"
        }
      ],
      "stateMutability": "view",
      "type": "function"
    },
    {
      "inputs": [],
      "name": "tld",
      "outputs": [
        {
          "internalType": "string",
          "name": "",
          "type": "string"
        }
      ],
      "stateMutability": "view",
      "type": "function"
    },
    {
      "inputs": [
        {
          "internalType": "uint256",
          "name": "tokenId",
          "type": "uint256"
        }
      ],
      "name": "tokenURI",
      "outputs": [
        {
          "internalType": "string",
          "name": "",
          "type": "string"
        }
      ],
      "stateMutability": "view",
      "type": "function"
    },
    {
      "inputs": [
        {
          "internalType": "address",
          "name": "from",
          "type": "address"
        },
        {
          "internalType": "address",
          "name": "to",
          "type": "address"
        },
        {
          "internalType": "uint256",
          "name": "tokenId",
          "type": "uint256"
        }
      ],
      "name": "transferFrom",
      "outputs": [],
      "stateMutability": "nonpayable",
      "type": "function"
    },
    {
      "inputs": [],
      "name": "withdraw",
      "outputs": [],
      "stateMutability": "nonpayable",
      "type": "function"
    }
  ],
  "bytecode": "0x6080604052604051806108a0016040528061086b81526020016200474b61086b9139600990816200003191906200055b565b506040518060400160405280600d81526020017f3c2f746578743e3c2f7376673e00000000000000000000000000000000000000815250600a90816200007891906200055b565b5060405162004fb638038062004fb683398181016040528101906200009e9190620007a6565b6040518060400160405280601281526020017f4e696e6a61204e616d65205365727669636500000000000000000000000000008152506040518060400160405280600381526020017f4e4e53000000000000000000000000000000000000000000000000000000000081525081600090816200011b91906200055b565b5080600190816200012d91906200055b565b50505033600d60006101000a81548173ffffffffffffffffffffffffffffffffffffffff021916908373ffffffffffffffffffffffffffffffffffffffff16021790555080600890816200018291906200055b565b50620001ca6040518060400160405280601881526020017f2573206e616d652073657276696365206465706c6f796564000000000000000081525082620001d160201b60201c565b50620008b3565b620002738282604051602401620001ea92919062000849565b6040516020818303038152906040527f4b5c4277000000000000000000000000000000000000000000000000000000007bffffffffffffffffffffffffffffffffffffffffffffffffffffffff19166020820180517bffffffffffffffffffffffffffffffffffffffffffffffffffffffff83818316178352505050506200027760201b60201c565b5050565b6200029d8162000298620002a060201b6200147017620002c160201b60201c565b60201c565b50565b60006a636f6e736f6c652e6c6f679050600080835160208501845afa505050565b620002d560201b620028eb17819050919050565b620002df62000884565b565b600081519050919050565b7f4e487b7100000000000000000000000000000000000000000000000000000000600052604160045260246000fd5b7f4e487b7100000000000000000000000000000000000000000000000000000000600052602260045260246000fd5b600060028204905060018216806200036357607f821691505b6020821081036200037957620003786200031b565b5b50919050565b60008190508160005260206000209050919050565b60006020601f8301049050919050565b600082821b905092915050565b600060088302620003e37fffffffffffffffffffffffffffffffffffffffffffffffffffffffffffffffff82620003a4565b620003ef8683620003a4565b95508019841693508086168417925050509392505050565b6000819050919050565b6000819050919050565b60006200043c62000436620004308462000407565b62000411565b62000407565b9050919050565b6000819050919050565b62000458836200041b565b62000470620004678262000443565b848454620003b1565b825550505050565b600090565b6200048762000478565b620004948184846200044d565b505050565b5b81811015620004bc57620004b06000826200047d565b6001810190506200049a565b5050565b601f8211156200050b57620004d5816200037f565b620004e08462000394565b81016020851015620004f0578190505b62000508620004ff8562000394565b83018262000499565b50505b505050565b600082821c905092915050565b6000620005306000198460080262000510565b1980831691505092915050565b60006200054b83836200051d565b9150826002028217905092915050565b6200056682620002e1565b67ffffffffffffffff811115620005825762000581620002ec565b5b6200058e82546200034a565b6200059b828285620004c0565b600060209050601f831160018114620005d35760008415620005be578287015190505b620005ca85826200053d565b8655506200063a565b601f198416620005e3866200037f565b60005b828110156200060d57848901518255600182019150602085019450602081019050620005e6565b868310156200062d578489015162000629601f8916826200051d565b8355505b6001600288020188555050505b505050505050565b6000604051905090565b600080fd5b600080fd5b600080fd5b600080fd5b6000601f19601f8301169050919050565b6200067c8262000660565b810181811067ffffffffffffffff821117156200069e576200069d620002ec565b5b80604052505050565b6000620006b362000642565b9050620006c1828262000671565b919050565b600067ffffffffffffffff821115620006e457620006e3620002ec565b5b620006ef8262000660565b9050602081019050919050565b60005b838110156200071c578082015181840152602081019050620006ff565b60008484015250505050565b60006200073f6200073984620006c6565b620006a7565b9050828152602081018484840111156200075e576200075d6200065b565b5b6200076b848285620006fc565b509392505050565b600082601f8301126200078b576200078a62000656565b5b81516200079d84826020860162000728565b91505092915050565b600060208284031215620007bf57620007be6200064c565b5b600082015167ffffffffffffffff811115620007e057620007df62000651565b5b620007ee8482850162000773565b91505092915050565b600082825260208201905092915050565b60006200081582620002e1565b620008218185620007f7565b935062000833818560208601620006fc565b6200083e8162000660565b840191505092915050565b6000604082019050818103600083015262000865818562000808565b905081810360208301526200087b818462000808565b90509392505050565b7f4e487b7100000000000000000000000000000000000000000000000000000000600052605160045260246000fd5b613e8880620008c36000396000f3fe60806040526004361061014b5760003560e01c806370a08231116100b6578063bf40fac11161006f578063bf40fac1146104b6578063c1880a98146104f3578063c87b56dd1461051c578063e985e9c514610559578063f2c298be14610596578063fe2c6198146105b25761014b565b806370a08231146103a65780638da5cb5b146103e35780638f32d59b1461040e57806395d89b4114610439578063a22cb46514610464578063b88d4fde1461048d5761014b565b8063264492351161010857806326449235146102845780632d551432146102c15780633ccfd60b146102ec57806342842e0e14610303578063541e771d1461032c5780636352211e146103695761014b565b806301ffc9a71461015057806306fdde031461018d578063081812fc146101b8578063095ea7b3146101f557806311dd88451461021e57806323b872dd1461025b575b600080fd5b34801561015c57600080fd5b5061017760048036038101906101729190612961565b6105ef565b60405161018491906129a9565b60405180910390f35b34801561019957600080fd5b506101a2610650565b6040516101af9190612a54565b60405180910390f35b3480156101c457600080fd5b506101df60048036038101906101da9190612aac565b6106e2565b6040516101ec9190612b1a565b60405180910390f35b34801561020157600080fd5b5061021c60048036038101906102179190612b61565b6106fe565b005b34801561022a57600080fd5b5061024560048036038101906102409190612c06565b610714565b6040516102529190612a54565b60405180910390f35b34801561026757600080fd5b50610282600480360381019061027d9190612c53565b6107c7565b005b34801561029057600080fd5b506102ab60048036038101906102a69190612dd6565b6108c9565b6040516102b89190612b1a565b60405180910390f35b3480156102cd57600080fd5b506102d6610912565b6040516102e39190612a54565b60405180910390f35b3480156102f857600080fd5b506103016109a0565b005b34801561030f57600080fd5b5061032a60048036038101906103259190612c53565b610a66565b005b34801561033857600080fd5b50610353600480360381019061034e9190612dd6565b610a86565b6040516103609190612a54565b60405180910390f35b34801561037557600080fd5b50610390600480360381019061038b9190612aac565b610b3c565b60405161039d9190612b1a565b60405180910390f35b3480156103b257600080fd5b506103cd60048036038101906103c89190612e1f565b610b4e565b6040516103da9190612e5b565b60405180910390f35b3480156103ef57600080fd5b506103f8610c08565b6040516104059190612e97565b60405180910390f35b34801561041a57600080fd5b50610423610c2e565b60405161043091906129a9565b60405180910390f35b34801561044557600080fd5b5061044e610c86565b60405161045b9190612a54565b60405180910390f35b34801561047057600080fd5b5061048b60048036038101906104869190612ede565b610d18565b005b34801561049957600080fd5b506104b460048036038101906104af9190612fbf565b610d2e565b005b3480156104c257600080fd5b506104dd60048036038101906104d89190612c06565b610d4b565b6040516104ea9190612b1a565b60405180910390f35b3480156104ff57600080fd5b5061051a60048036038101906105159190613042565b610d96565b005b34801561052857600080fd5b50610543600480360381019061053e9190612aac565b610e44565b6040516105509190612a54565b60405180910390f35b34801561056557600080fd5b50610580600480360381019061057b91906130c3565b610f57565b60405161058d91906129a9565b60405180910390f35b6105b060048036038101906105ab9190612c06565b610feb565b005b3480156105be57600080fd5b506105d960048036038101906105d49190612c06565b6113cc565b6040516105e69190612e5b565b60405180910390f35b6000634906490660e01b7bffffffffffffffffffffffffffffffffffffffffffffffffffffffff1916827bffffffffffffffffffffffffffffffffffffffffffffffffffffffff19161480610649575061064882611491565b5b9050919050565b60606000805461065f90613132565b80601f016020809104026020016040519081016040528092919081815260200182805461068b90613132565b80156106d85780601f106106ad576101008083540402835291602001916106d8565b820191906000526020600020905b8154815290600101906020018083116106bb57829003601f168201915b5050505050905090565b60006106ed82611573565b506106f7826115fb565b9050919050565b610710828261070b611638565b611640565b5050565b6060600c8383604051610728929190613193565b9081526020016040518091039020805461074190613132565b80601f016020809104026020016040519081016040528092919081815260200182805461076d90613132565b80156107ba5780601f1061078f576101008083540402835291602001916107ba565b820191906000526020600020905b81548152906001019060200180831161079d57829003601f168201915b5050505050905092915050565b600073ffffffffffffffffffffffffffffffffffffffff168273ffffffffffffffffffffffffffffffffffffffff16036108395760006040517f64a0ae920000000000000000000000000000000000000000000000000000000081526004016108309190612b1a565b60405180910390fd5b600061084d8383610848611638565b611652565b90508373ffffffffffffffffffffffffffffffffffffffff168173ffffffffffffffffffffffffffffffffffffffff16146108c3578382826040517f64283d7b0000000000000000000000000000000000000000000000000000000081526004016108ba939291906131ac565b60405180910390fd5b50505050565b600b818051602081018201805184825260208301602085012081835280955050505050506000915054906101000a900473ffffffffffffffffffffffffffffffffffffffff1681565b6008805461091f90613132565b80601f016020809104026020016040519081016040528092919081815260200182805461094b90613132565b80156109985780601f1061096d57610100808354040283529160200191610998565b820191906000526020600020905b81548152906001019060200180831161097b57829003601f168201915b505050505081565b6109a8610c2e565b6109b157600080fd5b600047905060003373ffffffffffffffffffffffffffffffffffffffff16826040516109dc90613214565b60006040518083038185875af1925050503d8060008114610a19576040519150601f19603f3d011682016040523d82523d6000602084013e610a1e565b606091505b5050905080610a62576040517f08c379a0000000000000000000000000000000000000000000000000000000008152600401610a5990613275565b60405180910390fd5b5050565b610a8183838360405180602001604052806000815250610d2e565b505050565b600c818051602081018201805184825260208301602085012081835280955050505050506000915090508054610abb90613132565b80601f0160208091040260200160405190810160405280929190818152602001828054610ae790613132565b8015610b345780601f10610b0957610100808354040283529160200191610b34565b820191906000526020600020905b815481529060010190602001808311610b1757829003601f168201915b505050505081565b6000610b4782611573565b9050919050565b60008073ffffffffffffffffffffffffffffffffffffffff168273ffffffffffffffffffffffffffffffffffffffff1603610bc15760006040517f89c62b64000000000000000000000000000000000000000000000000000000008152600401610bb89190612b1a565b60405180910390fd5b600360008373ffffffffffffffffffffffffffffffffffffffff1673ffffffffffffffffffffffffffffffffffffffff168152602001908152602001600020549050919050565b600d60009054906101000a900473ffffffffffffffffffffffffffffffffffffffff1681565b6000600d60009054906101000a900473ffffffffffffffffffffffffffffffffffffffff1673ffffffffffffffffffffffffffffffffffffffff163373ffffffffffffffffffffffffffffffffffffffff1614905090565b606060018054610c9590613132565b80601f0160208091040260200160405190810160405280929190818152602001828054610cc190613132565b8015610d0e5780601f10610ce357610100808354040283529160200191610d0e565b820191906000526020600020905b815481529060010190602001808311610cf157829003601f168201915b5050505050905090565b610d2a610d23611638565b838361186c565b5050565b610d398484846107c7565b610d45848484846119db565b50505050565b6000600b8383604051610d5f929190613193565b908152602001604051809103902060009054906101000a900473ffffffffffffffffffffffffffffffffffffffff16905092915050565b3373ffffffffffffffffffffffffffffffffffffffff16600b8585604051610dbf929190613193565b908152602001604051809103902060009054906101000a900473ffffffffffffffffffffffffffffffffffffffff1673ffffffffffffffffffffffffffffffffffffffff1614610e0e57600080fd5b8181600c8686604051610e22929190613193565b90815260200160405180910390209182610e3d92919061344c565b5050505050565b6060610e4f82611573565b506000600660008481526020019081526020016000208054610e7090613132565b80601f0160208091040260200160405190810160405280929190818152602001828054610e9c90613132565b8015610ee95780601f10610ebe57610100808354040283529160200191610ee9565b820191906000526020600020905b815481529060010190602001808311610ecc57829003601f168201915b505050505090506000610efa611b92565b90506000815103610f0f578192505050610f52565b600082511115610f44578082604051602001610f2c92919061354d565b60405160208183030381529060405292505050610f52565b610f4d84611ba9565b925050505b919050565b6000600560008473ffffffffffffffffffffffffffffffffffffffff1673ffffffffffffffffffffffffffffffffffffffff16815260200190815260200160002060008373ffffffffffffffffffffffffffffffffffffffff1673ffffffffffffffffffffffffffffffffffffffff16815260200190815260200160002060009054906101000a900460ff16905092915050565b600073ffffffffffffffffffffffffffffffffffffffff16600b8383604051611015929190613193565b908152602001604051809103902060009054906101000a900473ffffffffffffffffffffffffffffffffffffffff1673ffffffffffffffffffffffffffffffffffffffff161461106457600080fd5b600061107083836113cc565b9050803410156110b5576040517f08c379a00000000000000000000000000000000000000000000000000000000081526004016110ac906135bd565b60405180910390fd5b6000838360086040516020016110cd939291906136ac565b60405160208183030381529060405290506000600982600a6040516020016110f7939291906136dd565b604051602081830303815290604052905060006111146007611c12565b9050600061116587878080601f016020809104026020016040519081016040528093929190818152602001838380828437600081840152601f19601f82011690508083019250505050505050611c20565b9050600061117282611dd5565b9050611266604051806060016040528060318152602001613da96031913989898080601f016020809104026020016040519081016040528093929190818152602001838380828437600081840152601f19601f82011690508083019250505050505050600880546111e290613132565b80601f016020809104026020016040519081016040528092919081815260200182805461120e90613132565b801561125b5780601f106112305761010080835404028352916020019161125b565b820191906000526020600020905b81548152906001019060200180831161123e57829003601f168201915b505050505086611ea3565b600061129c8661127587611f45565b846040516020016112889392919061388a565b604051602081830303815290604052611f45565b90506000816040516020016112b19190613933565b60405160208183030381529060405290506112e3604051806060016040528060398152602001613d70603991396120a8565b6113226040518060400160405280600e81526020017f46696e616c20746f6b656e55524900000000000000000000000000000000000081525082612141565b611343604051806060016040528060398152602001613dda603991396120a8565b61134d33866121dd565b61135785826121fb565b33600b8b8b60405161136a929190613193565b908152602001604051809103902060006101000a81548173ffffffffffffffffffffffffffffffffffffffff021916908373ffffffffffffffffffffffffffffffffffffffff1602179055506113c06007612257565b50505050505050505050565b60008061141c84848080601f016020809104026020016040519081016040528093929190818152602001838380828437600081840152601f19601f82011690508083019250505050505050611c20565b90506000811161142b57600080fd5b60038103611444576706f05b59d3b2000091505061146a565b6004810361145d57670429d069189e000091505061146a565b67016345785d8a00009150505b92915050565b60006a636f6e736f6c652e6c6f679050600080835160208501845afa505050565b60007f80ac58cd000000000000000000000000000000000000000000000000000000007bffffffffffffffffffffffffffffffffffffffffffffffffffffffff1916827bffffffffffffffffffffffffffffffffffffffffffffffffffffffff1916148061155c57507f5b5e139f000000000000000000000000000000000000000000000000000000007bffffffffffffffffffffffffffffffffffffffffffffffffffffffff1916827bffffffffffffffffffffffffffffffffffffffffffffffffffffffff1916145b8061156c575061156b8261226d565b5b9050919050565b60008061157f836122d7565b9050600073ffffffffffffffffffffffffffffffffffffffff168173ffffffffffffffffffffffffffffffffffffffff16036115f257826040517f7e2732890000000000000000000000000000000000000000000000000000000081526004016115e99190612e5b565b60405180910390fd5b80915050919050565b60006004600083815260200190815260200160002060009054906101000a900473ffffffffffffffffffffffffffffffffffffffff169050919050565b600033905090565b61164d8383836001612314565b505050565b60008061165e846122d7565b9050600073ffffffffffffffffffffffffffffffffffffffff168373ffffffffffffffffffffffffffffffffffffffff16146116a05761169f8184866124d9565b5b600073ffffffffffffffffffffffffffffffffffffffff168173ffffffffffffffffffffffffffffffffffffffff1614611731576116e2600085600080612314565b6001600360008373ffffffffffffffffffffffffffffffffffffffff1673ffffffffffffffffffffffffffffffffffffffff168152602001908152602001600020600082825403925050819055505b600073ffffffffffffffffffffffffffffffffffffffff168573ffffffffffffffffffffffffffffffffffffffff16146117b4576001600360008773ffffffffffffffffffffffffffffffffffffffff1673ffffffffffffffffffffffffffffffffffffffff168152602001908152602001600020600082825401925050819055505b846002600086815260200190815260200160002060006101000a81548173ffffffffffffffffffffffffffffffffffffffff021916908373ffffffffffffffffffffffffffffffffffffffff160217905550838573ffffffffffffffffffffffffffffffffffffffff168273ffffffffffffffffffffffffffffffffffffffff167fddf252ad1be2c89b69c2b068fc378daa952ba7f163c4a11628f55a4df523b3ef60405160405180910390a4809150509392505050565b600073ffffffffffffffffffffffffffffffffffffffff168273ffffffffffffffffffffffffffffffffffffffff16036118dd57816040517f5b08ba180000000000000000000000000000000000000000000000000000000081526004016118d49190612b1a565b60405180910390fd5b80600560008573ffffffffffffffffffffffffffffffffffffffff1673ffffffffffffffffffffffffffffffffffffffff16815260200190815260200160002060008473ffffffffffffffffffffffffffffffffffffffff1673ffffffffffffffffffffffffffffffffffffffff16815260200190815260200160002060006101000a81548160ff0219169083151502179055508173ffffffffffffffffffffffffffffffffffffffff168373ffffffffffffffffffffffffffffffffffffffff167f17307eab39ab6107e8899845ad3d59bd9653f200f220920489ca2b5937696c31836040516119ce91906129a9565b60405180910390a3505050565b60008373ffffffffffffffffffffffffffffffffffffffff163b1115611b8c578273ffffffffffffffffffffffffffffffffffffffff1663150b7a02611a1f611638565b8685856040518563ffffffff1660e01b8152600401611a4194939291906139aa565b6020604051808303816000875af1925050508015611a7d57506040513d601f19601f82011682018060405250810190611a7a9190613a0b565b60015b611b01573d8060008114611aad576040519150601f19603f3d011682016040523d82523d6000602084013e611ab2565b606091505b506000815103611af957836040517f64a0ae92000000000000000000000000000000000000000000000000000000008152600401611af09190612b1a565b60405180910390fd5b805181602001fd5b63150b7a0260e01b7bffffffffffffffffffffffffffffffffffffffffffffffffffffffff1916817bffffffffffffffffffffffffffffffffffffffffffffffffffffffff191614611b8a57836040517f64a0ae92000000000000000000000000000000000000000000000000000000008152600401611b819190612b1a565b60405180910390fd5b505b50505050565b606060405180602001604052806000815250905090565b6060611bb482611573565b506000611bbf611b92565b90506000815111611bdf5760405180602001604052806000815250611c0a565b80611be984611dd5565b604051602001611bfa92919061354d565b6040516020818303038152906040525b915050919050565b600081600001549050919050565b60008060008084519050600092505b80821015611dca576000858381518110611c4c57611c4b613a38565b5b602001015160f81c60f81b9050608060f81b817effffffffffffffffffffffffffffffffffffffffffffffffffffffffffffff19161015611c9b57600183611c949190613a96565b9250611db6565b60e060f81b817effffffffffffffffffffffffffffffffffffffffffffffffffffffffffffff19161015611cdd57600283611cd69190613a96565b9250611db5565b60f060f81b817effffffffffffffffffffffffffffffffffffffffffffffffffffffffffffff19161015611d1f57600383611d189190613a96565b9250611db4565b60f8801b817effffffffffffffffffffffffffffffffffffffffffffffffffffffffffffff19161015611d6057600483611d599190613a96565b9250611db3565b60fc60f81b817effffffffffffffffffffffffffffffffffffffffffffffffffffffffffffff19161015611da257600583611d9b9190613a96565b9250611db2565b600683611daf9190613a96565b92505b5b5b5b5b508280611dc290613aca565b935050611c2f565b829350505050919050565b606060006001611de48461259d565b01905060008167ffffffffffffffff811115611e0357611e02612cab565b5b6040519080825280601f01601f191660200182016040528015611e355781602001600182028036833780820191505090505b509050600082602001820190505b600115611e98578080600190039150507f3031323334353637383961626364656600000000000000000000000000000000600a86061a8153600a8581611e8c57611e8b613b12565b5b04945060008503611e43575b819350505050919050565b611f3f84848484604051602401611ebd9493929190613b41565b6040516020818303038152906040527f8eafb02b000000000000000000000000000000000000000000000000000000007bffffffffffffffffffffffffffffffffffffffffffffffffffffffff19166020820180517bffffffffffffffffffffffffffffffffffffffffffffffffffffffff83818316178352505050506126f0565b50505050565b60606000825103611f67576040518060200160405280600081525090506120a3565b6000604051806060016040528060408152602001613e136040913990506000600360028551611f969190613a96565b611fa09190613b9b565b6004611fac9190613bcc565b67ffffffffffffffff811115611fc557611fc4612cab565b5b6040519080825280601f01601f191660200182016040528015611ff75781602001600182028036833780820191505090505b509050600182016020820185865187015b80821015612063576003820191508151603f8160121c168501518453600184019350603f81600c1c168501518453600184019350603f8160061c168501518453600184019350603f8116850151845360018401935050612008565b505060038651066001811461207f57600281146120925761209a565b603d6001830353603d600283035361209a565b603d60018303535b50505080925050505b919050565b61213e816040516024016120bc9190612a54565b6040516020818303038152906040527f41304fac000000000000000000000000000000000000000000000000000000007bffffffffffffffffffffffffffffffffffffffffffffffffffffffff19166020820180517bffffffffffffffffffffffffffffffffffffffffffffffffffffffff83818316178352505050506126f0565b50565b6121d98282604051602401612157929190613c0e565b6040516020818303038152906040527f4b5c4277000000000000000000000000000000000000000000000000000000007bffffffffffffffffffffffffffffffffffffffffffffffffffffffff19166020820180517bffffffffffffffffffffffffffffffffffffffffffffffffffffffff83818316178352505050506126f0565b5050565b6121f782826040518060200160405280600081525061270a565b5050565b8060066000848152602001908152602001600020908161221b9190613c45565b507ff8e1a15aba9398e019f0b49df1a4fde98ee17ae345cb5f6b5e2c27f5033e8ce78260405161224b9190612e5b565b60405180910390a15050565b6001816000016000828254019250508190555050565b60007f01ffc9a7000000000000000000000000000000000000000000000000000000007bffffffffffffffffffffffffffffffffffffffffffffffffffffffff1916827bffffffffffffffffffffffffffffffffffffffffffffffffffffffff1916149050919050565b60006002600083815260200190815260200160002060009054906101000a900473ffffffffffffffffffffffffffffffffffffffff169050919050565b808061234d5750600073ffffffffffffffffffffffffffffffffffffffff168273ffffffffffffffffffffffffffffffffffffffff1614155b1561248157600061235d84611573565b9050600073ffffffffffffffffffffffffffffffffffffffff168373ffffffffffffffffffffffffffffffffffffffff16141580156123c857508273ffffffffffffffffffffffffffffffffffffffff168173ffffffffffffffffffffffffffffffffffffffff1614155b80156123db57506123d98184610f57565b155b1561241d57826040517fa9fbf51f0000000000000000000000000000000000000000000000000000000081526004016124149190612b1a565b60405180910390fd5b811561247f57838573ffffffffffffffffffffffffffffffffffffffff168273ffffffffffffffffffffffffffffffffffffffff167f8c5be1e5ebec7d5bd14f71427d1e84f3dd0314c0f7b2291e5b200ac8c7c3b92560405160405180910390a45b505b836004600085815260200190815260200160002060006101000a81548173ffffffffffffffffffffffffffffffffffffffff021916908373ffffffffffffffffffffffffffffffffffffffff16021790555050505050565b6124e4838383612726565b61259857600073ffffffffffffffffffffffffffffffffffffffff168373ffffffffffffffffffffffffffffffffffffffff160361255957806040517f7e2732890000000000000000000000000000000000000000000000000000000081526004016125509190612e5b565b60405180910390fd5b81816040517f177e802f00000000000000000000000000000000000000000000000000000000815260040161258f929190613d17565b60405180910390fd5b505050565b600080600090507a184f03e93ff9f4daa797ed6e38ed64bf6a1f01000000000000000083106125fb577a184f03e93ff9f4daa797ed6e38ed64bf6a1f01000000000000000083816125f1576125f0613b12565b5b0492506040810190505b6d04ee2d6d415b85acef81000000008310612638576d04ee2d6d415b85acef8100000000838161262e5761262d613b12565b5b0492506020810190505b662386f26fc10000831061266757662386f26fc10000838161265d5761265c613b12565b5b0492506010810190505b6305f5e1008310612690576305f5e100838161268657612685613b12565b5b0492506008810190505b61271083106126b55761271083816126ab576126aa613b12565b5b0492506004810190505b606483106126d857606483816126ce576126cd613b12565b5b0492506002810190505b600a83106126e7576001810190505b80915050919050565b612707816126ff6114706127e7565b63ffffffff16565b50565b61271483836127f2565b61272160008484846119db565b505050565b60008073ffffffffffffffffffffffffffffffffffffffff168373ffffffffffffffffffffffffffffffffffffffff16141580156127de57508273ffffffffffffffffffffffffffffffffffffffff168473ffffffffffffffffffffffffffffffffffffffff16148061279f575061279e8484610f57565b5b806127dd57508273ffffffffffffffffffffffffffffffffffffffff166127c5836115fb565b73ffffffffffffffffffffffffffffffffffffffff16145b5b90509392505050565b6128eb819050919050565b600073ffffffffffffffffffffffffffffffffffffffff168273ffffffffffffffffffffffffffffffffffffffff16036128645760006040517f64a0ae9200000000000000000000000000000000000000000000000000000000815260040161285b9190612b1a565b60405180910390fd5b600061287283836000611652565b9050600073ffffffffffffffffffffffffffffffffffffffff168173ffffffffffffffffffffffffffffffffffffffff16146128e65760006040517f73c6ac6e0000000000000000000000000000000000000000000000000000000081526004016128dd9190612b1a565b60405180910390fd5b505050565b6128f3613d40565b565b6000604051905090565b600080fd5b600080fd5b60007fffffffff0000000000000000000000000000000000000000000000000000000082169050919050565b61293e81612909565b811461294957600080fd5b50565b60008135905061295b81612935565b92915050565b600060208284031215612977576129766128ff565b5b60006129858482850161294c565b91505092915050565b60008115159050919050565b6129a38161298e565b82525050565b60006020820190506129be600083018461299a565b92915050565b600081519050919050565b600082825260208201905092915050565b60005b838110156129fe5780820151818401526020810190506129e3565b60008484015250505050565b6000601f19601f8301169050919050565b6000612a26826129c4565b612a3081856129cf565b9350612a408185602086016129e0565b612a4981612a0a565b840191505092915050565b60006020820190508181036000830152612a6e8184612a1b565b905092915050565b6000819050919050565b612a8981612a76565b8114612a9457600080fd5b50565b600081359050612aa681612a80565b92915050565b600060208284031215612ac257612ac16128ff565b5b6000612ad084828501612a97565b91505092915050565b600073ffffffffffffffffffffffffffffffffffffffff82169050919050565b6000612b0482612ad9565b9050919050565b612b1481612af9565b82525050565b6000602082019050612b2f6000830184612b0b565b92915050565b612b3e81612af9565b8114612b4957600080fd5b50565b600081359050612b5b81612b35565b92915050565b60008060408385031215612b7857612b776128ff565b5b6000612b8685828601612b4c565b9250506020612b9785828601612a97565b9150509250929050565b600080fd5b600080fd5b600080fd5b60008083601f840112612bc657612bc5612ba1565b5b8235905067ffffffffffffffff811115612be357612be2612ba6565b5b602083019150836001820283011115612bff57612bfe612bab565b5b9250929050565b60008060208385031215612c1d57612c1c6128ff565b5b600083013567ffffffffffffffff811115612c3b57612c3a612904565b5b612c4785828601612bb0565b92509250509250929050565b600080600060608486031215612c6c57612c6b6128ff565b5b6000612c7a86828701612b4c565b9350506020612c8b86828701612b4c565b9250506040612c9c86828701612a97565b9150509250925092565b600080fd5b7f4e487b7100000000000000000000000000000000000000000000000000000000600052604160045260246000fd5b612ce382612a0a565b810181811067ffffffffffffffff82111715612d0257612d01612cab565b5b80604052505050565b6000612d156128f5565b9050612d218282612cda565b919050565b600067ffffffffffffffff821115612d4157612d40612cab565b5b612d4a82612a0a565b9050602081019050919050565b82818337600083830152505050565b6000612d79612d7484612d26565b612d0b565b905082815260208101848484011115612d9557612d94612ca6565b5b612da0848285612d57565b509392505050565b600082601f830112612dbd57612dbc612ba1565b5b8135612dcd848260208601612d66565b91505092915050565b600060208284031215612dec57612deb6128ff565b5b600082013567ffffffffffffffff811115612e0a57612e09612904565b5b612e1684828501612da8565b91505092915050565b600060208284031215612e3557612e346128ff565b5b6000612e4384828501612b4c565b91505092915050565b612e5581612a76565b82525050565b6000602082019050612e706000830184612e4c565b92915050565b6000612e8182612ad9565b9050919050565b612e9181612e76565b82525050565b6000602082019050612eac6000830184612e88565b92915050565b612ebb8161298e565b8114612ec657600080fd5b50565b600081359050612ed881612eb2565b92915050565b60008060408385031215612ef557612ef46128ff565b5b6000612f0385828601612b4c565b9250506020612f1485828601612ec9565b9150509250929050565b600067ffffffffffffffff821115612f3957612f38612cab565b5b612f4282612a0a565b9050602081019050919050565b6000612f62612f5d84612f1e565b612d0b565b905082815260208101848484011115612f7e57612f7d612ca6565b5b612f89848285612d57565b509392505050565b600082601f830112612fa657612fa5612ba1565b5b8135612fb6848260208601612f4f565b91505092915050565b60008060008060808587031215612fd957612fd86128ff565b5b6000612fe787828801612b4c565b9450506020612ff887828801612b4c565b935050604061300987828801612a97565b925050606085013567ffffffffffffffff81111561302a57613029612904565b5b61303687828801612f91565b91505092959194509250565b6000806000806040858703121561305c5761305b6128ff565b5b600085013567ffffffffffffffff81111561307a57613079612904565b5b61308687828801612bb0565b9450945050602085013567ffffffffffffffff8111156130a9576130a8612904565b5b6130b587828801612bb0565b925092505092959194509250565b600080604083850312156130da576130d96128ff565b5b60006130e885828601612b4c565b92505060206130f985828601612b4c565b9150509250929050565b7f4e487b7100000000000000000000000000000000000000000000000000000000600052602260045260246000fd5b6000600282049050600182168061314a57607f821691505b60208210810361315d5761315c613103565b5b50919050565b600081905092915050565b600061317a8385613163565b9350613187838584612d57565b82840190509392505050565b60006131a082848661316e565b91508190509392505050565b60006060820190506131c16000830186612b0b565b6131ce6020830185612e4c565b6131db6040830184612b0b565b949350505050565b600081905092915050565b50565b60006131fe6000836131e3565b9150613209826131ee565b600082019050919050565b600061321f826131f1565b9150819050919050565b7f4661696c656420746f207769746864726177204d617469630000000000000000600082015250565b600061325f6018836129cf565b915061326a82613229565b602082019050919050565b6000602082019050818103600083015261328e81613252565b9050919050565b600082905092915050565b60008190508160005260206000209050919050565b60006020601f8301049050919050565b600082821b905092915050565b6000600883026133027fffffffffffffffffffffffffffffffffffffffffffffffffffffffffffffffff826132c5565b61330c86836132c5565b95508019841693508086168417925050509392505050565b6000819050919050565b600061334961334461333f84612a76565b613324565b612a76565b9050919050565b6000819050919050565b6133638361332e565b61337761336f82613350565b8484546132d2565b825550505050565b600090565b61338c61337f565b61339781848461335a565b505050565b5b818110156133bb576133b0600082613384565b60018101905061339d565b5050565b601f821115613400576133d1816132a0565b6133da846132b5565b810160208510156133e9578190505b6133fd6133f5856132b5565b83018261339c565b50505b505050565b600082821c905092915050565b600061342360001984600802613405565b1980831691505092915050565b600061343c8383613412565b9150826002028217905092915050565b6134568383613295565b67ffffffffffffffff81111561346f5761346e612cab565b5b6134798254613132565b6134848282856133bf565b6000601f8311600181146134b357600084156134a1578287013590505b6134ab8582613430565b865550613513565b601f1984166134c1866132a0565b60005b828110156134e9578489013582556001820191506020850194506020810190506134c4565b868310156135065784890135613502601f891682613412565b8355505b6001600288020188555050505b50505050505050565b6000613527826129c4565b6135318185613163565b93506135418185602086016129e0565b80840191505092915050565b6000613559828561351c565b9150613565828461351c565b91508190509392505050565b7f4e6f7420656e6f756768204d6174696320706169640000000000000000000000600082015250565b60006135a76015836129cf565b91506135b282613571565b602082019050919050565b600060208201905081810360008301526135d68161359a565b9050919050565b7f2e00000000000000000000000000000000000000000000000000000000000000600082015250565b6000613613600183613163565b915061361e826135dd565b600182019050919050565b6000815461363681613132565b6136408186613163565b9450600182166000811461365b5760018114613670576136a3565b60ff19831686528115158202860193506136a3565b613679856132a0565b60005b8381101561369b5781548189015260018201915060208101905061367c565b838801955050505b50505092915050565b60006136b982858761316e565b91506136c482613606565b91506136d08284613629565b9150819050949350505050565b60006136e98286613629565b91506136f5828561351c565b91506137018284613629565b9150819050949350505050565b7f7b226e616d65223a202200000000000000000000000000000000000000000000600082015250565b6000613744600a83613163565b915061374f8261370e565b600a82019050919050565b7f222c20226465736372697074696f6e223a20224120646f6d61696e206f6e207460008201527f68652046756e6b206e616d652073657276696365222c2022696d616765223a2060208201527f22646174613a696d6167652f7376672b786d6c3b6261736536342c0000000000604082015250565b60006137dc605b83613163565b91506137e78261375a565b605b82019050919050565b7f222c20226c656e677468223a2022000000000000000000000000000000000000600082015250565b6000613828600e83613163565b9150613833826137f2565b600e82019050919050565b7f227d000000000000000000000000000000000000000000000000000000000000600082015250565b6000613874600283613163565b915061387f8261383e565b600282019050919050565b600061389582613737565b91506138a1828661351c565b91506138ac826137cf565b91506138b8828561351c565b91506138c38261381b565b91506138cf828461351c565b91506138da82613867565b9150819050949350505050565b7f646174613a6170706c69636174696f6e2f6a736f6e3b6261736536342c000000600082015250565b600061391d601d83613163565b9150613928826138e7565b601d82019050919050565b600061393e82613910565b915061394a828461351c565b915081905092915050565b600081519050919050565b600082825260208201905092915050565b600061397c82613955565b6139868185613960565b93506139968185602086016129e0565b61399f81612a0a565b840191505092915050565b60006080820190506139bf6000830187612b0b565b6139cc6020830186612b0b565b6139d96040830185612e4c565b81810360608301526139eb8184613971565b905095945050505050565b600081519050613a0581612935565b92915050565b600060208284031215613a2157613a206128ff565b5b6000613a2f848285016139f6565b91505092915050565b7f4e487b7100000000000000000000000000000000000000000000000000000000600052603260045260246000fd5b7f4e487b7100000000000000000000000000000000000000000000000000000000600052601160045260246000fd5b6000613aa182612a76565b9150613aac83612a76565b9250828201905080821115613ac457613ac3613a67565b5b92915050565b6000613ad582612a76565b91507fffffffffffffffffffffffffffffffffffffffffffffffffffffffffffffffff8203613b0757613b06613a67565b5b600182019050919050565b7f4e487b7100000000000000000000000000000000000000000000000000000000600052601260045260246000fd5b60006080820190508181036000830152613b5b8187612a1b565b90508181036020830152613b6f8186612a1b565b90508181036040830152613b838185612a1b565b9050613b926060830184612e4c565b95945050505050565b6000613ba682612a76565b9150613bb183612a76565b925082613bc157613bc0613b12565b5b828204905092915050565b6000613bd782612a76565b9150613be283612a76565b9250828202613bf081612a76565b91508282048414831517613c0757613c06613a67565b5b5092915050565b60006040820190508181036000830152613c288185612a1b565b90508181036020830152613c3c8184612a1b565b90509392505050565b613c4e826129c4565b67ffffffffffffffff811115613c6757613c66612cab565b5b613c718254613132565b613c7c8282856133bf565b600060209050601f831160018114613caf5760008415613c9d578287015190505b613ca78582613430565b865550613d0f565b601f198416613cbd866132a0565b60005b82811015613ce557848901518255600182019150602085019450602081019050613cc0565b86831015613d025784890151613cfe601f891682613412565b8355505b6001600288020188555050505b505050505050565b6000604082019050613d2c6000830185612b0b565b613d396020830184612e4c565b9392505050565b7f4e487b7100000000000000000000000000000000000000000000000000000000600052605160045260246000fdfe0a2d2d2d2d2d2d2d2d2d2d2d2d2d2d2d2d2d2d2d2d2d2d2d2d2d2d2d2d2d2d2d2d2d2d2d2d2d2d2d2d2d2d2d2d2d2d2d2d2d2d2d2d2d2d2d2d5265676973746572696e672025732e2573206f6e2074686520636f6e7472616374207769746820746f6b656e49442025642d2d2d2d2d2d2d2d2d2d2d2d2d2d2d2d2d2d2d2d2d2d2d2d2d2d2d2d2d2d2d2d2d2d2d2d2d2d2d2d2d2d2d2d2d2d2d2d2d2d2d2d2d2d2d2d0a4142434445464748494a4b4c4d4e4f505152535455565758595a6162636465666768696a6b6c6d6e6f707172737475767778797a303132333435363738392b2fa2646970667358221220c6e0114174c2d6145d8d89191ff23c07d5dc3f7346cfc5d689bc6ee12ab11d8e64736f6c634300081400333c73766720786d6c6e733d22687474703a2f2f7777772e77332e6f72672f323030302f737667222077696474683d2232373022206865696768743d22323730222066696c6c3d226e6f6e65223e3c706174682066696c6c3d2275726c282342292220643d224d302030683237307632373048307a222f3e3c646566733e3c66696c7465722069643d22412220636f6c6f722d696e746572706f6c6174696f6e2d66696c746572733d2273524742222066696c746572556e6974733d227573657253706163654f6e55736522206865696768743d22323730222077696474683d22323730223e3c666544726f70536861646f772064783d2230222064793d22312220737464446576696174696f6e3d22322220666c6f6f642d6f7061636974793d222e323235222077696474683d223230302522206865696768743d2232303025222f3e3c2f66696c7465723e3c2f646566733e3c7061746820643d224d37322e3836332034322e393439632d2e3636382d2e3338372d312e3432362d2e35392d322e3139372d2e3539732d312e3532392e3230342d322e3139372e35396c2d31302e30383120362e3033322d362e383520332e3933342d31302e30383120362e303332632d2e3636382e3338372d312e3432362e35392d322e3139372e3539732d312e3532392d2e3230342d322e3139372d2e35396c2d382e3031332d342e37323161342e353220342e35322030203020312d312e3538392d312e363136632d2e3338342d2e3636352d2e3539342d312e3431382d2e3630382d322e313837762d392e3331632d2e3031332d2e3737352e3138352d312e3533382e3537322d322e32303861342e323520342e323520302030203120312e3632352d312e3539356c372e3838342d342e3539632e3636382d2e33383720312e3432362d2e353920322e3139372d2e353973312e3532392e32303420322e3139372e35396c372e38383420342e353961342e353220342e353220302030203120312e35383920312e363136632e3338342e3636352e35393420312e3431382e36303820322e31383776362e3033326c362e38352d342e303635762d362e303332632e3031332d2e3737352d2e3138352d312e3533382d2e3537322d322e32303861342e323520342e32352030203020302d312e3632352d312e3539354c34312e3435362032342e3539632d2e3636382d2e3338372d312e3432362d2e35392d322e3139372d2e3539732d312e3532392e3230342d322e3139372e35396c2d31342e38363420382e36353561342e323520342e32352030203020302d312e36323520312e353935632d2e3338372e36372d2e35383520312e3433342d2e35373220322e3230387631372e343431632d2e3031332e3737352e31383520312e3533382e35373220322e32303861342e323520342e323520302030203020312e36323520312e3539356c31342e38363420382e363535632e3636382e33383720312e3432362e353920322e3139372e353973312e3532392d2e32303420322e3139372d2e35396c31302e3038312d352e39303120362e38352d342e3036352031302e3038312d352e393031632e3636382d2e33383720312e3432362d2e353920322e3139372d2e353973312e3532392e32303420322e3139372e35396c372e38383420342e353961342e353220342e353220302030203120312e35383920312e363136632e3338342e3636352e35393420312e3431382e36303820322e31383776392e333131632e3031332e3737352d2e31383520312e3533382d2e35373220322e32303861342e323520342e32352030203020312d312e36323520312e3539356c2d372e38383420342e373231632d2e3636382e3338372d312e3432362e35392d322e3139372e3539732d312e3532392d2e3230342d322e3139372d2e35396c2d372e3838342d342e353961342e353220342e35322030203020312d312e3538392d312e363136632d2e3338352d2e3636352d2e3539342d312e3431382d2e3630382d322e313837762d362e3033326c2d362e383520342e30363576362e303332632d2e3031332e3737352e31383520312e3533382e35373220322e32303861342e323520342e323520302030203020312e36323520312e3539356c31342e38363420382e363535632e3636382e33383720312e3432362e353920322e3139372e353973312e3532392d2e32303420322e3139372d2e35396c31342e3836342d382e363535632e3635372d2e33393420312e3230342d2e393520312e3538392d312e363136732e3539342d312e3431382e3630392d322e3138375635352e353338632e3031332d2e3737352d2e3138352d312e3533382d2e3537322d322e32303861342e323520342e32352030203020302d312e3632352d312e3539356c2d31342e3939332d382e3738367a222066696c6c3d2223666666222f3e3c646566733e3c6c696e6561724772616469656e742069643d2242222078313d2230222079313d2230222078323d22323730222079323d2232373022206772616469656e74556e6974733d227573657253706163654f6e557365223e3c73746f702073746f702d636f6c6f723d2223636235656565222f3e3c73746f70206f66667365743d2231222073746f702d636f6c6f723d2223306364376534222073746f702d6f7061636974793d222e3939222f3e3c2f6c696e6561724772616469656e743e3c2f646566733e3c7465787420783d2233322e352220793d223233312220666f6e742d73697a653d223237222066696c6c3d2223666666222066696c7465723d2275726c282341292220666f6e742d66616d696c793d22506c7573204a616b617274612053616e732c44656a6156752053616e732c4e6f746f20436f6c6f7220456d6f6a692c4170706c6520436f6c6f7220456d6f6a692c73616e732d73657269662220666f6e742d7765696768743d22626f6c64223e",
  "linkReferences": {},
  "deployedLinkReferences": {}
}